:10000000DBC100000C94490A0C94760A0C94A30AF4
:100010000C94D00AF9C10000F7C10000F5C100003E
:10002000F3C10000F1C100000C94F90C0C949C0D7C
:10003000EBC10000E9C10000E7C10000E5C100001C
:10004000E3C10000E1C10000DFC10000DDC100002C
:10005000DBC10000D9C10000D7C100000C941D0C09
:10006000D3C100000C9455100C947C100C94A91072
:10007000CBC10000C9C10000C7C10000C5C100005C
:10008000C3C10000C1C10000BFC10000BDC100006C
:10009000BBC10000B9C10000B7C10000B5C100007C
:1000A000B3C10000B1C10000AFC10000FCF3CF3FFD
:1000B0000123022304230823802301290229042980
:1000C0000829402680264029802910232023402308
:1000D000802F402F202F102F022F012F1029202991
:1000E000402C0001000031031200020000B901960B
:1000F00000220200DC0255002102000D020900224C
:100100000300A40238002103002602090022040093
:100110004F0255002104003F020900030000B50111
:1001200004010309049B0118020309045B013E0357
:100130000309044D010C040309043D010E0E035391
:100140000065007200690061006C0000000C033162
:1001500000320033003400350000003E03530065D8
:10016000007200690061006C002B004B0065007993
:100170000062006F006100720064002B004D006F90
:10018000007500730065002B004A006F0079007352
:10019000007400690063006B0000001803540065E0
:1001A0000065006E00730079006400750069006EE0
:1001B000006F000000040309040902960005010015
:1001C000C032080B0002020201040904000001020F
:1001D000020100052400100105240100010424028D
:1001E00006052406000107058203100040090401EA
:1001F00000020A0000000705030240000007058412
:10020000024000000904020001030101000921115C
:1002100001000122550007058103080001090403BC
:100220000001030102000921110100012238000729
:100230000585030800020904040001030000000909
:100240002111010001225500070586030C0001055C
:10025000010904A101150025017501952005091961
:100260000129208102150025073500463B01750450
:100270009501651405010939814205010901A100B3
:10028000150026FF03750A95040930093109320962
:10029000358102C0150026FF03750A95020936094B
:1002A000368102C005010902A101050919012908C9
:1002B00015002501950875018102050109300931F4
:1002C00009381581257F750895038106050C0A38C4
:1002D000021581257F750895018106C00501090673
:1002E000A10175019508050719E029E71500250109
:1002F00081029508750115002501050C09E909EA37
:1003000009E209CD09B509B609B709B88102950511
:1003100075010508190129059102950175039103DD
:10032000950675081500257F05071900297F8100AE
:10033000C012010002EF020140C0168704710201E1
:10034000020301C106C11280368136C106C1162CD6
:100350005E7460616264346667656E362D37382777
:100360001E1F202122232425267333762E77785FC3
:100370004445464748494A4B4C4D4E4F50515253C5
:100380005455565758595A5B5C5D2F3130636D3563
:100390000405060708090A0B0C0D0E0F10111213A5
:1003A0001415161718191A1B1C1D6F7170752A0069
:1003B000B504C3105516C10411241FBECFEFDAE0F7
:1003C000DEBFCDBF17E0A0E0B1E0E6EBF6E302C090
:1003D00005900D92A235B107D9F728E0A2E5B7E064
:1003E00001C01D92A33CB207E1F711E0CBEDD1E0D3
:1003F00004C02197FE010E947318C83DD107C9F7B8
:100400000E9441120C944F1BFBCD8091D907883478
:1004100058F583B1E091D90791E09E0F9093D907E9
:10042000F0E0982F9170E652F84F908390E0E091C1
:10043000D90721E02E0F2093D907F0E09C013595D4
:1004400027952170E652F84F2083E091D90721E0EB
:100450002E0F2093D907F0E0959587959595879570
:100460008170E652F84F808308950F931F93CF93C6
:10047000DF93EC01FB0101900020E9F73197AF0118
:10048000461B570BE881F9810280F381E02D099525
:100490008C01CE010E940C11800F911FDF91CF9132
:1004A0001F910F910895FC016150862F877021E004
:1004B00030E001C0220F8A95EAF7442319F1683031
:1004C00030F48091C308282B2093C30815C06031F5
:1004D00030F48091C408282B2093C4080DC06831E3
:1004E00030F48091C508282B2093C50805C0809161
:1004F000C608282B6032F0F0808181111EC0CF0128
:100500000C9400162095683020F48091C3082823AD
:10051000DBCF603120F49091C4082923DDCF68310E
:1005200020F49091C5082923DFCF603228F79091FD
:10053000C60829232093C608DFCF0895FC01611562
:1005400084E0780710F06FEF73E09091C8089F7314
:10055000862F8295880F880F807C982B9093C808EF
:1005600076956795769567956093C9088081811126
:1005700003C0CF010C940016089540E855E260E0F6
:1005800070E085EB98E00E94DD134FEF60E470E0CF
:1005900087E398E00E941C1081E08093AD08569A92
:1005A000209828982198299822982A985098589805
:1005B00042E065E072E080E03CD763E471E085EB07
:1005C00098E053CFEF920F93CF93DF938091F7078B
:1005D00060E570EF882309F4D4C08FEA98E00E94A8
:1005E00025158091020861E570EF882309F4CEC0DB
:1005F0008FEA98E00E9425158091FA076FE470EF6A
:10060000882309F4C8C08FEA98E00E9425158091DC
:10061000010862E570EF882309F4C2C08FEA98E010
:100620000E9425158091FB0768E270EF882309F48A
:10063000BCC08FEA98E00E9425158091FC0769E212
:1006400070EF882309F4B6C08FEA98E00E94251560
:100650008091FE076CE270EF882309F4B0C08FEA46
:1006600098E00E9425158091FF076AE270EF8823C9
:1006700009F4AAC08FEA98E00E9425158091F50739
:1006800061E070EE882309F4A4C08FEA98E00E942C
:1006900025158091F60762E070EE882309F49EC06C
:1006A0008FEA98E00E9425158091F30768E070EECC
:1006B000882309F498C08FEA98E00E9425152091BC
:1006C00000086091FD07E12C00E040E08EEA98E030
:1006D0000E94E61520E330E047E050E070E060E083
:1006E000F901E652F84F808190E0042E02C0880F95
:1006F000991F0A94E2F7680F791F415051092D5F45
:100700003F4F2834310561F780910408882311F0A8
:100710006F5F710977FF02C0615F7F4FEB0184E07B
:10072000D595C7958A95E1F74091F9078091F9072A
:100730009091F807222733272C1B3D0B429F402D19
:10074000112461E0811160E081E0911180E0689FF7
:10075000602D11246C9F602D112400E020E08EEAB2
:1007600098E00E94A0156091F8076C9F602D1124FD
:1007700040E08EEA98E0DF91CF910F91EF900C94DA
:10078000DE158FEA98E00E9475152BCF8FEA98E06E
:100790000E94751531CF8FEA98E00E94751537CF0A
:1007A0008FEA98E00E9475153DCF8FEA98E00E948D
:1007B000751543CF8FEA98E00E94751549CF8FEAEF
:1007C00098E00E9475154FCF8FEA98E00E9475154A
:1007D00055CF8FEA98E00E9475155BCF8FEA98E0BD
:1007E0000E94751561CF8FEA98E00E94751567CF5A
:1007F000AF92BF92CF92DF92EF92FF920F931F932F
:10080000CF93DF935C0110E000E085E7E82E81E004
:10081000F82E95EBC92E98E0D92EE801CA15DB0514
:10082000C4F4FE01E652F84F80811F928F93DF934C
:10083000CF93FF92EF92DF92CF920E9426112396E0
:100840008DB79EB708960FB6F8949EBF0FBE8DBFAA
:10085000E5CF85EB98E00E940C110F5F1F4F03302E
:100860001105D9F685EB98E0DF91CF911F910F919B
:10087000FF90EF90DF90CF90BF90AF900C940C1151
:10088000AF92BF92CF92DF92EF92FF920F931F939E
:10089000CF93DF9309E517E0D0E0C0E088E8C82EE9
:1008A00081E0D82E95EBA92E98E0B92ECE01865284
:1008B000984F7C01FC019081F80181918F0198177C
:1008C000E9F0F701808181112AC083E891E09F93CC
:1008D0008F93DF93CF93DF92CF92BF92AF920E941C
:1008E0002611F7018081F801319780838DB79EB77B
:1008F00008960FB6F8949EBF0FBE8DBF2196C834E0
:10090000D105A1F688E490E0DF91CF911F910F917E
:10091000FF90EF90DF90CF90BF90AF9069CF8EE7C0
:1009200091E0D5CF982F80ED890F8A3070F08FE954
:10093000890F863018F489EA890F08958FEB890FA3
:10094000863010F489ECF8CF80E00895CF93DF93E0
:10095000D62FE8DFC82F8D2FE5DF90E1C99FE0019A
:1009600011248C2BDF91CF91089561E971E081EA28
:1009700097E00E94B31169E572E082E597E00C947C
:10098000B31182E597E00E944D1181EA97E00C9443
:100990004D11DF92EF92FF920F931F93CF93DF934E
:1009A0007C018B0183E08093D907D0E0C0E0F701A0
:1009B00084819581C817D907B8F4BE016F5F7F4F56
:1009C000C7010E942F12FC01D080BE01C7010E9406
:1009D0002F126D2DFC018081B9DF682F87E398E02D
:1009E0000E94D60F2296E3CF0130110511F404E0E6
:1009F00010E080E090E817FD05C02091D90720178E
:100A0000110614F40197B9F78091D9078350990B17
:100A1000DF91CF911F910F91FF90EF90DF9008959C
:100A2000EF92FF920F931F93CF93DF9300D000D0EC
:100A300000D01F92CDB7DEB766E971E0CE01019616
:100A40000E94B31168E470E0CE010196A2DFCE01EE
:100A500001960E944D1151E2E52E51E0F52E11E074
:100A6000D701ED917D01F0E0E652F84F808141E041
:100A7000811101C040E0612F8DEA98E014DD1F5F15
:100A8000123171F740E350E067E070E090E080E001
:100A9000FA01E652F84F208130E0062E02C0220F04
:100AA000331F0A94E2F7820F931F615071094D5F63
:100AB0005F4F4834510561F720910408222311F05B
:100AC0008F5F91099395880F991F8115B4E09B075B
:100AD00014F08FEF93E02091C7082F70382F3295D4
:100AE000307F232B2093C7082091C808207C34E056
:100AF000969587953A95E1F7822B8093C808809167
:100B0000AD08811104C08DEA98E00E940016809122
:100B10000308882309F4BEC022E330E047E050E038
:100B200070E060E0F901E652F84F808190E0042E19
:100B300002C0880F991F0A94E2F7680F791F41508D
:100B400051092D5F3F4F2A34310561F793E0660F5D
:100B5000771F9A95E1F741E350E0E7E0F0E010E01D
:100B600000E0DA01A652B84F2C9130E00E2E02C000
:100B7000220F331F0A94E2F7020F131F31974D5FC4
:100B80005F4F4934510569F783E0000F111F8A95C3
:100B9000E1F780912001882339F0601B710B7E5FA3
:100BA0008DEA98E0CBDC1BC07E5F8DEA98E0C6DC66
:100BB0001E5F011524E0120714F00FEF13E00093FD
:100BC000CA088091CB088C7F812B8093CB088091C1
:100BD000AD08811104C08DEA98E00E940016809152
:100BE000D707811110C08091F407882361F08091AC
:100BF000F207882341F081E08093D7076BE971E029
:100C000085EB98E032DC8091D707882379F08091DA
:100C1000F407882359F08091F307882339F0109264
:100C2000D70763EC71E085EB98E01FDC8091D50776
:100C3000811110C08091F407882361F08091FD0735
:100C4000882341F081E08093D5076CEE71E085EB5D
:100C500098E00BDC8091D507882379F08091F40728
:100C6000882359F080910008882339F01092D50725
:100C700064E172E085EB98E0F8DB27960FB6F89414
:100C8000DEBF0FBECDBFDF91CF911F910F91FF90BF
:100C9000EF90089560E072E083CFCF93DF9300D0B0
:100CA00000D000D01F92CDB7DEB76DE372E0CE0169
:100CB00001960E94B31168E170E0CE01019669DEF1
:100CC000CE0101960E944D1127960FB6F894DEBF13
:100CD0000FBECDBFDF91CF910895EF92FF920F939A
:100CE0001F93CF93DF9300D000D000D01F92CDB7D9
:100CF000DEB78C01FC01848180FF04C060E3C80181
:100D00000E941712F80181818F9380818F9382E472
:100D100092E09F938F9385EBE82E88E0F82EFF9268
:100D2000EF920E942611B801CE0101960E94DB11BC
:100D30006FEF7FEFCE0101962CDE8C01CE01019684
:100D40000E944D111F930F938CE492E09F938F9319
:100D5000FF92EF920E9426110FB6F894DEBF0FBEED
:100D6000CDBF101611061CF4C801039641DD27966D
:100D70000FB6F894DEBF0FBECDBFDF91CF911F91AC
:100D80000F91FF90EF9008954F925F926F927F9234
:100D90008F929F92AF92BF92CF92DF92EF92FF928B
:100DA0000F931F93CF93DF9300D000D000D01F92FA
:100DB000CDB7DEB796ECA92E97E0B92E10E000E093
:100DC00028EAE22E27E0F22E39E6432E32E0532EB7
:100DD00045EBC42E48E0D42E5AE5652E52E0752E20
:100DE000F50191915F0198012B50384F4901F901AC
:100DF00080810F5F1F4F981709F44FC080818823AF
:100E000009F479C01F930F93F801EE0FFF1FEE5FF7
:100E1000FE4F81818F9380818F93FF92EF920E948A
:100E2000891868EA77E0CE0101960E94B31161E06B
:100E300070E0CE010196ADDDCE0101960E944D110C
:100E4000FF92EF927F926F92DF92CF920E942611D3
:100E50001F930F93809103018F93809102018F93D1
:100E6000FF92EF920E94891868EA77E0CE0101961E
:100E70000E94B31161E070E0CE0101968ADDCE01DF
:100E800001960E944D110FB6F894DEBF0FBECDBF84
:100E9000F4018081F501319780830E30110509F04E
:100EA0009FCF8091F307882379F061EA77E0CE0144
:100EB00001960E94DB1161E070E0CE01019669DDD0
:100EC000CE0101960E944D1127960FB6F894DEBF11
:100ED0000FBECDBFDF91CF911F910F91FF90EF908B
:100EE000DF90CF90BF90AF909F908F907F906F904A
:100EF0005F904F9008951F930F93809101018F93FE
:100F0000809100018F93FF92EF920E94891868EA06
:100F100077E0CE0101960E94B31161E070E0CE014E
:100F2000019637DDCE0101960E944D11FF92EF929E
:100F30005F924F92DF92CF920E942611A4CF2F9200
:100F40003F924F925F926F927F928F929F92AF9259
:100F5000BF92CF92DF92EF92FF921F93CF93DF93D6
:100F600000D000D000D01F92CDB7DEB76DEB262E9B
:100F700064E0362E9EE8492E94E0592E20E6622E3B
:100F800024E0722E3CE8C32E34E0D32E4FE9A42E89
:100F900044E0B42E5BEB852E54E0952E85EB98E073
:100FA0000E945D12181619060CF007C285EB98E036
:100FB0000E94AE12182F8F3309F474C1D4F58A320F
:100FC00009F484C1FCF48A3009F4DEC180ED810F9C
:100FD0008A3028F4612F82E597E00E9417128FE98A
:100FE000810F863028F4612F82E597E00E94171266
:100FF0008FEB810F863090F6612F82E597E00E949B
:101000001712B8CF8B3209F432C18D32F9F68091C4
:101010003301909134018A3091052CF00A97909316
:10102000340180933301809134018F938091330197
:1010300028C18D3609F47FC12CF58836D1F18B3665
:1010400029F68091D50791E0811190E09093D50722
:10105000882309F496C18DE792E09F938F938AE3EA
:1010600095E09F938F9385EB98E09F938F930E94D9
:1010700026110F900F900F900F900F900F9080916E
:10108000D50742C1833709F469C18A3709F09ECF79
:101090008091200191E0811190E0909320018823BC
:1010A00009F446C18DE792E09F938F935F924F9230
:1010B000EDC061E872E085EB98E0D7D967EA72E0AD
:1010C00085EB98E0D2D96DEC72E085EB98E0CDD954
:1010D00066EE72E085EB98E0C8D964E473E085EBD6
:1010E00098E0C3D963E673E085EB98E0BED962ED82
:1010F00073E085EB98E0B9D96DEE73E085EB98E08D
:10110000B4D96DE074E085EB98E0AFD969E474E0A0
:1011100085EB98E0AAD98091D607811196C08DE71A
:1011200092E09F938F937F926F9285EB98E09F93CD
:101130008F930E9426110F900F900F900F900F9099
:101140000F908091D707811183C08DE792E09F9324
:101150008F9382E794E09F938F9385EB98E09F9322
:101160008F930E9426110F900F900F900F900F9069
:101170000F908091200181116EC08DE792E09F93C6
:101180008F93DF92CF9285EB98E09F938F930E948D
:1011900026110F900F900F900F900F900F9080914D
:1011A000320181115BC08DE792E09F938F93BF92D4
:1011B000AF9285EB98E09F938F930E9426110F903A
:1011C0000F900F900F900F900F908091D807811182
:1011D00048C08DE792E09F938F939F928F9285EB0B
:1011E00098E09F938F930E9426110F900F900F907D
:1011F0000F900F900F908091D507811135C08DE72A
:1012000092E09F938F938CED94E09F938F9385EB67
:10121000E82E88E0F82EFF92EF920E94261180912E
:1012200034018F93809133018F9387EF94E09F93E4
:101230008F93FF92EF920E942611C701EDD70FB650
:10124000F894DEBF0FBECDBFC1CE8AE792E069CF72
:101250008AE792E07CCF8AE792E091CF8AE792E03A
:10126000A4CF8AE792E0B7CF8AE792E0CACF809115
:101270003301909134010A969093340180933301A5
:101280009F938F9389E095E09F938F9385EB98E0F0
:101290009F938F93DBD70F900F900F900F900F902D
:1012A0000F9094CE8091D60791E0811190E09093B9
:1012B000D607882341F08DE792E09F938F9382E6D3
:1012C00094E09F93E2CF8AE792E0F7CF8091D7072F
:1012D00091E0811190E09093D707882331F18DE759
:1012E00092E09F938F9384E794E09F938F9385EB95
:1012F00098E09F938F93AAD70F900F900F900F9025
:101300000F900F908091D707882309F45FCE8091CA
:10131000320181115BCE81E0809332018AE792E055
:101320009F938F938AE195E0CCCF8AE792E0D9CF63
:101330008AE792E0B9CE8091320191E0811190E08C
:1013400090933201882339F08DE792E09F938F9339
:1013500080E295E0B6CF8AE792E0F8CF8091D80797
:1013600091E0811190E09093D807882339F08DE7C0
:1013700092E09F938F933F922F9288CF8AE792E0DB
:10138000F8CF8AE792E069CE80915607909157078F
:10139000892B61F062E577E0CE0101960E94DB11B6
:1013A000CE0101969ADCCE01019677D769E572E00D
:1013B00082E597E00E94E41109CE27960FB6F894D3
:1013C000DEBF0FBECDBFDF91CF911F91FF90EF9099
:1013D000DF90CF90BF90AF909F908F907F906F9055
:1013E0005F904F903F902F9008955E9880913201CA
:1013F000811116DB8091D80781114FDC8091D707CE
:101400008111C2DC8091D5078111DCD88091D6078B
:10141000811136DA94DD8DEA98E00E9400165E9A1A
:101420006091330170913401072E000C880B990BE9
:1014300044C2843050F08550843050F5E82FF0E0FD
:10144000E35EF84F8081843018F5E82FF0E09F01CB
:10145000220F331FD901AE5DB74F11967C936E9367
:10146000E455FF4FE49190916900437001C0440F2F
:101470002A95EAF7E9234E2B409369009DB321E0BA
:1014800030E001C0220F8A95EAF7892F822B8DBBAD
:1014900008951F920F920FB60F9211242F933F932E
:1014A0004F935F936F937F938F939F93AF93BF936C
:1014B000EF93FF938091220890912308892B29F0C4
:1014C000E0912208F09123080995FF91EF91BF91D7
:1014D000AF919F918F917F916F915F914F913F91CC
:1014E0002F910F900FBE0F901F9018951F920F9283
:1014F0000FB60F9211242F933F934F935F936F93E7
:101500007F938F939F93AF93BF93EF93FF938091BC
:10151000240890912508892B29F0E0912408F09166
:1015200025080995FF91EF91BF91AF919F918F9100
:101530007F916F915F914F913F912F910F900FBECF
:101540000F901F9018951F920F920FB60F921124B3
:101550002F933F934F935F936F937F938F939F93BB
:10156000AF93BF93EF93FF93809126089091270844
:10157000892B29F0E0912608F09127080995FF9121
:10158000EF91BF91AF919F918F917F916F915F91FB
:101590004F913F912F910F900FBE0F901F90189574
:1015A0001F920F920FB60F9211242F933F934F93D8
:1015B0005F936F937F938F939F93AF93BF93EF93BB
:1015C000FF938091280890912908892B29F0E091B8
:1015D0002808F09129080995FF91EF91BF91AF91EB
:1015E0009F918F917F916F915F914F913F912F913B
:1015F0000F900FBE0F901F9018951DBA10926800A3
:101600001CBC10BE1FBA10927A0010926E0010928D
:101610006F0010927100109272001092C900ECEBF2
:10162000F0E0108214B817B81AB81DB810BA1082BA
:1016300015B818B81BB81EB811BA0895F894E1E6A9
:10164000F0E020E82083108283E084BD85BDEEE6D3
:10165000F0E080818160808381E08093800092E06F
:101660009093810080939000909391009093C0009C
:1016700094E09093C1008093C2008093C3001092C5
:10168000C40086E880937A0020937B0010927E004D
:1016900010927D0051D178940895893170F4E0EB77
:1016A000F0E0880FE80FF11D2591E491F0E09FB77D
:1016B000F8948181822B81839FBF0895E93150F492
:1016C000EE0FE559F44F0994E93120F4EE0FE3569B
:1016D000F44F09940895289A0895299A08952A9A0A
:1016E00008952B9A08952F9A6AC0589A58C0599A0B
:1016F00008955A9A08955B9A0895469A66C0479A43
:101700006AC05E9A08955F9A6CC02C9A08952D9ACB
:101710004AC02E9A4EC08F9A08958E9A08958D9A37
:1017200008958C9A0895899A0895889A08955C9AE4
:1017300008955D9A0895769A0895289808952998AD
:1017400008952A9808952B9808952F9838C058988E
:1017500026C0599808955A9808955B980895469818
:1017600034C0479838C05E9808955F983AC02C9866
:1017700008952D9818C02E981CC08F9808958E98A3
:1017800008958D9808958C9808958998089588985B
:1017900008955C9808955D98089576980895E4B545
:1017A000EF7DE4BD0895E0918000EF77E093800045
:1017B0000895E0918000EF7DE09380000895E0912E
:1017C0008000E77FE09380000895E0919000EF773C
:1017D000E09390000895E091C000EF77E093C0009F
:1017E0000895E091C200E77FE093C2000895F89465
:1017F00084B7877F84BF80916000806180936000A0
:101800001092600080E29EE40197F1F781E08093FE
:10181000E00080E28093D80080E69AEE0197F1F72D
:10182000ECDE0C94003FFFCFF894E7DE80E69AEE02
:101830000197F1F70C940000FFCF8F938FB78F9330
:1018400080912A088D5F8D37D0F480932A0880918B
:101850002B088F5F80932B08D8F080912C088F4F36
:1018600080932C08A8F080912D088F4F80932D082D
:1018700078F080912E088F4F80932E0809C08D57E5
:1018800080932A0880912B088E5F80932B0828F77D
:1018900080912F088C5F80932F0858F0809130083A
:1018A0008F4F8093300828F0809131088F4F8093BC
:1018B00031088F918FBF8F911895CF92DF92EF9261
:1018C000FF926B017C0119D09B01C114D104E1048A
:1018D000F10429F4FF90EF90DF90CF9008950DD0A0
:1018E000621B730B683E734080F381E0C81AD10815
:1018F000E108F10828513C4FE8CF0FB6F89466B5DF
:1019000015B270912F0880913008909131080FBE68
:1019100010FE05C06F3F19F07C5F8F4F9F4F112461
:101920000024660F001C660F001C7029089580912A
:10193000E80080FFFCCF08958091D80087FF02C0A7
:1019400085FF56C081E08093D70080EA8093D8005D
:1019500082E189BD09B400FEFDCF80E98093D80003
:101960001092E0001092DF081092DE081092DD085D
:101970001092D5081092D6081092D7081092D80865
:101980001092D9081092DA081092DB081092DC0845
:1019900081E08093D4089DE79093D3081092D208F9
:1019A0001092D1081092D0088093CF081092C308EB
:1019B0001092C4081092C5081092C6088FE0809358
:1019C000C70890E29093C80880E88093C9081092F5
:1019D000CA0822E02093CB0828E02093CC089093FB
:1019E000CD088093CE081092E1008DE08093E20054
:1019F00008951F920F920FB60F9211242F933F93C9
:101A00004F935F936F937F938F939F93AF93BF9306
:101A1000EF93FF939091E1001092E10093FF11C0CA
:101A20001092E90081E08093EB001092EC0082E3D9
:101A30008093ED0088E08093F0001092DF08109210
:101A4000DD0892FF47C08091DF08882309F442C077
:101A500080913608882359F081508093360881118F
:101A600006C084E08093E9008AE38093E8008091D7
:101A70003508882331F0815080933508811101C0E9
:101A8000B6DE8091D308882329F1809133088F5FD7
:101A9000809333088370F1F481E08093E9008091B2
:101AA000E80085FF17C08091D2088F5F8093D2082D
:101AB0002091D30882130EC01092D208E5EDF8E011
:101AC00081918093F10088E0ED3DF807C9F78AE342
:101AD0008093E80090FF0CC080E18093E2001092B8
:101AE000DF0881E08093DE0880EA8093D80019BC8B
:101AF0008091DE08882379F094FF0DC082E189BDD2
:101B000009B400FEFDCF80E98093D8008DE080937A
:101B1000E2001092DE08FF91EF91BF91AF919F918B
:101B20008F917F916F915F914F913F912F910F9086
:101B30000FBE0F901F9018951F920F920FB60F9225
:101B40001124EF92FF920F931F932F933F934F9384
:101B50005F936F937F938F939F93AF93BF93CF9335
:101B6000DF93EF93FF931092E9008091E80083FFE9
:101B700021C0D091F100C091F1000091F1001091CD
:101B8000F100E090F100F090F1002091F10030912F
:101B9000F10082EF8093E800C63009F05AC08DE072
:101BA000E2EEF0E0459155910417150739F03596AE
:101BB0008150C1F781E28093EB002BC04591559194
:101BC000E416F50611F03396F3CF459155918491C3
:101BD0002F3F310519F010F02FEF30E0821708F495
:101BE000282F3EEF8091E800982F9570D9F382FD61
:101BF00010C0822F213408F080E4982F911122C068
:101C0000922F981B892F3093E800911119C020342E
:101C1000B8F4FF91EF91DF91CF91BF91AF919F9178
:101C20008F917F916F915F914F913F912F911F9174
:101C30000F91FF90EF900F900FBE0F901F9018958F
:101C4000282FD0CFFA0145914093F100AF01915078
:101C5000D5CFC53041F48EEF8093E80068DE006890
:101C60000093E300D6CFC93011F5D1118CC0009399
:101C7000DF081092DD08109236088EEF8093E8009E
:101C800081E0E3E4F3E021E08093E9002093EB00BE
:101C900095919093EC0095919093ED008F5F873034
:101CA00099F78EE18093EA001092EA00B2CFC83033
:101CB00049F4D03809F067C03ADE8091DF0880939C
:101CC000F10010C0C13291F4D13A09F00AC12FDEFF
:101CD000E5E3F1E080818093F100319681E0EC331F
:101CE000F807C1F78EEF8093E80093CFC03209F078
:101CF0003EC0D13209F047C08091E80082FFFCCF9E
:101D0000E5E3F1E08091F1008083319691E0EC33DE
:101D1000F907C1F78BEF8093E8008EEF8093E8001E
:101D20008091350190913601A0913701B091380131
:101D300086389105A105B10521F48FE0809335081F
:101D400068CF86399105A105B10509F062CF84E01D
:101D50008093E9009FEF8091EE00837009F464DDC9
:101D60009093E8008091E80082FDFCCFF4CFC2326E
:101D700031F4D13241F40093DD08D9DDB3CFC33261
:101D8000C1F4D132D1F382E0E816F10409F095C034
:101D9000D13A09F051C0C13009F041C0C8DDE5EDCC
:101DA000F8E081918093F10098E0ED3DF907C9F7E3
:101DB00099CFC11111C0BBDDD23849F4E092E900DE
:101DC000C091EB00C5FBCC27C0F91092E900C0938D
:101DD000F1001092F10086CF8C2F8D7F813099F623
:101DE000D23089F60115110509F062C02E2D2F772A
:101DF0008FEF820F863008F05BC08EEF8093E80093
:101E00002093E900C33009F4D5CE89E18093EB003B
:101E100081E090E001C0880F2A95EAF743CFC230F5
:101E200021F485DD8091D3084ACFC33009F0C2CEBA
:101E30007EDD8091D40843CFD13209F0BBCEC930CA
:101E400061F48091E80082FFFCCF8091F1008093E3
:101E5000D1088BEF8093E80045CFCA3029F4109366
:101E6000D3081092D2083ECFCB3009F0A3CE009316
:101E7000D40838CFC33009F09DCE59DD8091CF080A
:101E80001ECF94E0E916F10409F094CED13A09F09E
:101E900091CEC13009F08ECE4ADDE3ECF8E08FEC54
:101EA00098E021912093F1008E179F07D1F71ACF68
:101EB00082E0E816F10409F47DCE83E0E816F1042F
:101EC00001F7D13AB9F4C130A9F631DD8091D008DB
:101ED0008093F1001092F1001092F1001092F10045
:101EE00078CF92E0E916F10409F4A6CF83E0E81672
:101EF000F10439F6D13209F05DCECB3009F05ACE7B
:101F00000093CF08EFCE90E080E0089550916B08E9
:101F100040916A08852F90E0242F30E0541718F084
:101F2000821B930B0895805C9F4FFACF50916B08F2
:101F300040916A08252F30E0842F90E0821B930B9C
:101F4000541710F0879608950197089580916B08B3
:101F5000E0916A088E1751F0EF5FE03408F0E0E09E
:101F6000F0E0E459F74F808190E008958FEF9FEF04
:101F7000089590916B0880916A08981779F0909174
:101F80006A089F5F903408F090E0E92FF0E0E45990
:101F9000F74F808190936A0890E008958FEF9FEF4C
:101FA000089580913F088111FCCF08952091C900C8
:101FB00023FD06C021E0FC01228390E080E008952B
:101FC00080913C018F3F41F080913F08811104C016
:101FD000E0913C01F0E072DB909141088091400873
:101FE000981304C08091C80085FD19C080914108F4
:101FF0008F5F8832F8F4909140089817E1F3E82F4A
:10200000F0E0EE5BF74F608391E090933F088093A0
:1020100041088091C90080628093C90008C08FB7D1
:10202000F8946093CE0091E090933F088FBF81E0D9
:1020300090E0089580E0DFCF1F93CF93DF93EB0113
:10204000142F40933C014F3F29F0842F26DBE12FD2
:10205000F0E03ADBC0FF24C0C13080E1D80700F5D2
:1020600082E08093C8002197D093CD00C093CC002C
:102070008091C90083FD10C010926B0810926A080D
:10208000109241081092400810923F0886E0809319
:10209000CA0088ED8093C900DF91CF911F91089508
:1020A0001092C800D695C795DECF1F920F920FB63B
:1020B0000F9211242F938F939F93EF93FF939091FF
:1020C000CE0080916B088F5F803408F080E0209113
:1020D0006A08281739F0E82FF0E0E459F74F9083A9
:1020E00080936B08FF91EF919F918F912F910F90AB
:1020F0000FBE0F901F9018951F920F920FB60F9260
:1021000011248F939F93EF93FF93909141088091B7
:10211000400898130EC08091C9008F7D8093C9003C
:10212000FF91EF919F918F910F900FBE0F901F9095
:102130001895809140088F5F883208F080E0E82F82
:10214000F0E0EE5BF74F90819093CE0080934008D3
:10215000E7CF1F920F920FB60F9211248F93EF9338
:10216000FF9310923F0880913C018F3F21F0E09156
:102170003C01F0E0A9DAFF91EF918F910F900FBE33
:102180000F901F901895E7E3F8E0128288EE93E035
:10219000A0E0B0E083839483A583B683178285E2B1
:1021A00097E09183808308950895CF92DF92EF9214
:1021B000FF920F931F93CF93DF936C01EB017B0191
:1021C000E40EF51E10E000E0CE15DF0561F0699128
:1021D000D601ED91FC910190F081E02DC6010995A9
:1021E000080F191FF1CFC801DF91CF911F910F91F7
:1021F000FF90EF90DF90CF900895FB01A485B58507
:10220000ED91FC9111970190F081E02D682FCD01A7
:10221000099590E080E00895CF93DF9300D0CDB78B
:10222000DEB72DE029832AE02A83DC01ED91FC91C1
:102230000280F381E02D42E050E0BE016F5F7F4FEE
:1022400009950F900F90DF91CF910895CF93DF9371
:10225000CDB7DEB72E970FB6F894DEBF0FBECDBF59
:102260008DEF90E19A8789871C861B8682E08C839C
:102270008B899C899E878D87AE01495E5F4F6D89F2
:102280007E89CE01019665D72E960FB6F894DEBFF3
:102290000FBECDBFDF91CF910895FC018081918168
:1022A000C3C50F931F93CF93DF93EC018B016F5F37
:1022B0007F4F8881998141D6009751F09983888317
:1022C0001B830A8381E0DF91CF911F910F910895C5
:1022D00080E0F9CFCF93DF93FC0122813381261771
:1022E000370720F081E0DF91CF910895EC01D9DF2D
:1022F0008823C9F38C819D81892BA1F7E881F9811D
:102300001082F0CFEF92FF920F931F93CF93DF9342
:10231000EC017B018A014115510579F4E881F981CD
:10232000309709F010821D821C82CE01DF91CF917F
:102330001F910F91FF90EF900895BA01CBDF288194
:10234000398181110AC02115310521F0C9016CD5EF
:10235000198218821B821A82E6CF1D830C83B70173
:10236000C901D0D6E2CFFC01118210821382128201
:102370001582148216826115710549F0FB010190E6
:102380000020E9F73197AF01461B570BBBCF0895EB
:10239000FB0101900020E9F73197AF01461B570B75
:1023A000B1CF8617970731F0FB01448155816081D9
:1023B0007181A8CF0895FC011182108213821282CC
:1023C000158214821682EDCFCF93DF93EC01611555
:1023D000710529F0DDDFCE01DF91CF9108951D82D7
:1023E0001C82F9CFEF92FF920F931F93CF93DF934D
:1023F000EC017B014115510591F00C811D81040F09
:10240000151FB80167DF882351F0288139818C813D
:102410009D81B701820F931F75D61D830C83CE015A
:10242000DF91CF911F910F91FF90EF9008950F933F
:102430001F93CF93DF9300D0CDB7DEB78C016983B4
:102440001A8241E050E0BE016F5F7F4FCBDFC801D1
:102450000F900F90DF91CF911F910F910895FC0184
:10246000248135816217730720F480819181009760
:1024700029F41092AC088CEA98E00895860F971F13
:102480000895DCD80E94BD020E94F509FDCFCF93CC
:10249000DF931F92CDB7DEB76983DC01ED91FC912C
:1024A0000280F381E02D41E050E0BE016F5F7F4F7D
:1024B00009950F90DF91CF910895FC018FB7F894A3
:1024C0009091DF0891110CC090E08FBF208531857D
:1024D00037FD03C09F3F09F09F5F892F90E008956B
:1024E00093E09093E9009091F2009111EECF20914A
:1024F000E80022FFE9CF25FDE7CF2BE62093E80097
:10250000E4CFCF93DF93EC018885998597FF09C0CD
:10251000E881F9810284F385E02DCE010995998740
:10252000888788859985DF91CF9108952091DF086C
:10253000222371F02FB7F89433E03093E9003BE6A3
:102540004091E80045FF03C03093E800F9CF2FBF6A
:102550002FEF3FEFFC01318720870895FC01208594
:10256000318537FD07C04FEF5FEF51874087C901C5
:10257000992708959FB7F8948091DF08811104C0CE
:102580009FBF8FEF9FEF089583E08093E9002BE6D4
:102590008091E80085FD05C082FFF2CF2093E8001E
:1025A000F7CF8091F1002091E80025FD03C02BE6D4
:1025B0002093E8009FBF90E00895BF92CF92DF92F2
:1025C000EF92FF920F931F93CF93DF937C01809143
:1025D000DF08811110C081E0F701828310E000E084
:1025E000C801DF91CF911F910F91FF90EF90DF9085
:1025F000CF90BF9008952FB7F89484E08093E900BE
:1026000080913408882341F08091E80085FD02C064
:102610002FBFE1CF1092340810E000E084E0D82E04
:1026200090E4C92EA1EFB0E03AE3B32E33E04115B8
:10263000510509F4C0C08091E400815F9091E800E9
:1026400095FD16C02FBF9091E400891306C081E06C
:1026500080933408F7018283C3CF9091DF089111F2
:1026600002C081E0F7CF2FB7F894D092E900E6CF0F
:102670008091F2009C2D981B9417150611F008F01C
:10268000942FE92FF0E04E1B5F0B0E0F1F1FEB0185
:10269000E0E4E91BE03428F4EE0FFF27EE5AFC4E8D
:1026A000099480C099919C9399919C9399919C9342
:1026B00099919C9399919C9399919C9399919C93B6
:1026C00099919C9399919C9399919C9399919C93A6
:1026D00099919C9399919C9399919C9399919C9396
:1026E00099919C9399919C9399919C9399919C9386
:1026F00099919C9399919C9399919C9399919C9376
:1027000099919C9399919C9399919C9399919C9365
:1027100099919C9399919C9399919C9399919C9355
:1027200099919C9399919C9399919C9399919C9345
:1027300099919C9399919C9399919C9399919C9335
:1027400099919C9399919C9399919C9399919C9325
:1027500099919C9399919C9399919C9399919C9315
:1027600099919C9399919C9399919C9399919C9305
:1027700099919C9399919C9399919C9399919C93F5
:1027800099919C9399919C9399919C9399919C93E5
:1027900099919C9399919C9399919C9399919C93D5
:1027A00099919C93BE018091E80085FFB092E8006A
:1027B000309336083CCF2FBF13CF2FEF3FEFFC01F4
:1027C00031872087B9D80FB6F89480912B08909163
:1027D0002C08A0912D08B0912E080FBE9C0180916D
:1027E000DF08882329F068EC70E080E090E065C89D
:1027F0008091DE08882301F10FB6F89440912B08F0
:1028000050912C0860912D0870912E080FBE809178
:10281000DE08882389F00FB6F89480912B089091F8
:102820002C08A0912D08B0912E080FBE841B950B8B
:102830008B3F910560F308950FB6F89480912B08B3
:1028400090912C08A0912D08B0912E080FBE821BEC
:10285000930B853C994008F4C2CF0895603271050E
:1028600040F46A30710569F06B30710561F48BE2F8
:1028700008956038710538F4615D7C4FFB018491E7
:10288000089588E2089580E008958091DF08882304
:1028900009F441C08FB7F89491E09093E9009091CA
:1028A000E4009E5C21E03091E80035FD0EC08FBF52
:1028B0008091DF08882379F18091E400981759F11D
:1028C0008FB7F8942093E900EECF9091D5089093BC
:1028D000F1009091D6089093F1009091D7089093D1
:1028E000F1009091D8089093F1009091D9089093BD
:1028F000F1009091DA089093F1009091DB089093A9
:10290000F1009091DC089093F1009AE39093E80035
:102910001092D2088FBF0895CF93DF93EC0182E02D
:1029200066FF80E08093D5081092D6086F7360939D
:10293000D7081092D8081092D9081092DA0810928D
:10294000DB081092DC08CE01A0DF1092D5081092AF
:10295000D708CE01DF91CF9198CF6111DDCF0895D7
:10296000CF93DF93EC0167FD0CC01B8270E0CE01BA
:1029700075DF682FCE01F1DF81E090E0DF91CF912C
:102980000895603CD0F46F738B81813039F41B82E1
:102990008C819D819C01262BB901E9CF823061F7A2
:1029A00030E4639FB00111248C819D81682B792BC9
:1029B0007D836C8381E08B83DFCF603E38F480E4DD
:1029C000689FB0011124607C7770F2CF8FEF603F79
:1029D00090F76295607F1C826D8382E0ECCFCF938D
:1029E000DF93EC014423D1F09091D508892F842303
:1029F0008417A1F0942B9093D50891E0611111C038
:102A0000CE01DF91CF9141CF2F5F3F4F283031056D
:102A1000A1F49111F5CFDF91CF91089590E0662355
:102A2000D1F3A7EDB8E0FD018191861791F388E01D
:102A3000ED3DF807C9F722E030E08D918111E4CF38
:102A40002B52374FF9016083DBCFCF93DF93EC013B
:102A5000872F9927823C68F0803EC0F46F737727F8
:102A600026E0880F991F2A95E1F7807C9770682BE4
:102A7000792BCE01F3DE882381F042E086FF40E02F
:102A8000682F6F73CE01DF91CF91A9CF40E0803FD7
:102A9000C9F3462F60E0803EA9F3DF91CF910895FE
:102AA0009C014423F9F09091D508892F8423D1F01B
:102AB000409549234093D50891E0611103C0C901B5
:102AC000E4CE90E0E5EDF8E04BED58E0828186132E
:102AD00002C0128291E031964E175F07B9F791114B
:102AE000EECF08956111EDCF0895CF93DF93EC0100
:102AF000872F9927823C68F0803EC0F46F73772758
:102B000026E0880F991F2A95E1F7807C9770682B43
:102B1000792BCE01A3DE882381F042E086FF40E0DE
:102B2000682F6F73CE01DF91CF91BACF40E0803F25
:102B3000C9F3462F60E0803EA9F3DF91CF9108955D
:102B40000F938091DF088823B9F1603809F461E8B8
:102B5000403809F441E8203809F421E8003809F444
:102B600001E88FB7F89495E09093E9009091E40024
:102B70009E5C35E05091E80055FD0EC08FBF8091FE
:102B8000DF088823C9F08091E4009817A9F08FB777
:102B9000F8943093E900EECF9091D0089093F10033
:102BA0006093F1004093F1002093F1000093F10055
:102BB0009AE39093E8008FBF0F9108950F93262F0B
:102BC000042F40E060E0BCDF0F910895EF920F9377
:102BD000FC0191E0611101C090E04111946021116C
:102BE000926001119860E11090619093D00800E02C
:102BF00020E040E060E0CF01A3DF0F91EF90089567
:102C00008091DF08882309F44FC08FB7F89496E0CD
:102C10009093E9009091E4009E5C26E03091E800FA
:102C200035FD0EC08FBF8091DF088823E9F18091C8
:102C3000E4008917C9F18FB7F8942093E900EECF2B
:102C40009091C3089093F1009091C4089093F10083
:102C50009091C5089093F1009091C6089093F1006F
:102C60009091C7089093F1009091C8089093F1005B
:102C70009091C9089093F1009091CA089093F10047
:102C80009091CB089093F1009091CC089093F10033
:102C90009091CD089093F1009091CE089093F1001F
:102CA0009AE39093E8008FBF0895E5EBF8E0118672
:102CB0001086128288EE93E0A0E0B0E083839483D4
:102CC000A583B683178287E397E091838083EFEA39
:102CD000F8E0128213821482158289E497E09183CE
:102CE00080831092AD0808950F931F93CF93DF93C5
:102CF0008230910510F482E090E0E091C108F091FB
:102D0000C20830E020E070E060E0D0E0C0E0B0E079
:102D1000A0E0309799F42115310509F44AC0281B29
:102D2000390B24303105D8F58A819B8161157105F5
:102D300089F1FB0193838283FE0111C0408151819F
:102D40000281138148175907E0F04817590799F491
:102D5000109761F012960C93129713961C9332966B
:102D6000CF01DF91CF911F910F9108950093C1087A
:102D70001093C208F4CF2115310551F042175307C3
:102D800038F0A901DB019A01BD01DF01F801C1CFD3
:102D9000EF01F9CF9093C2088093C108CDCFFE0117
:102DA000E20FF31F819391932250310939832883D5
:102DB000D7CF2091BF083091C008232B41F4209138
:102DC0003F01309140013093C0082093BF0820910B
:102DD0003D0130913E012115310541F42DB73EB73B
:102DE0004091410150914201241B350BE091BF08F5
:102DF000F091C008E217F307A0F42E1B3F0B281731
:102E0000390778F0AC014E5F5F4F2417350748F063
:102E10004E0F5F1F5093C0084093BF08819391935A
:102E20009FCFF0E0E0E09CCFCF93DF930097E9F0F5
:102E3000FC01329713821282A091C108B091C2089E
:102E4000ED0130E020E01097A1F420813181820F64
:102E5000931F2091BF083091C0082817390709F047
:102E600061C0F093C008E093BF08DF91CF9108954F
:102E7000EA01CE17DF07E8F54A815B819E01411523
:102E80005105B1F7E901FB83EA8349915991C40FD8
:102E9000D51FEC17FD0761F4808191810296840FA4
:102EA000951FE90199838883828193819B838A831B
:102EB000F0E0E0E012968D919C9113970097B9F5A0
:102EC0002D913C911197CD010296820F931F209175
:102ED000BF083091C0082817390739F6309751F5E7
:102EE0001092C2081092C108B093C008A093BF0806
:102EF000BCCFD383C28340815181840F951FC817F3
:102F0000D90761F44E5F5F4F88819981480F591F3F
:102F1000518340838A819B8193838283211531056C
:102F200009F0B0CFF093C208E093C1089ECFFD0135
:102F3000DC01C0CF13821282D7CF4F925F926F9283
:102F40007F928F929F92AF92BF92CF92DF92EF9239
:102F5000FF920F931F93CF93DF938C01009791F40F
:102F6000CB01DF91CF911F910F91FF90EF90DF90F8
:102F7000CF90BF90AF909F908F907F906F905F9019
:102F80004F90B2CEFC01E60FF71F9C012250310991
:102F9000E217F30708F4A4C0D901CD91DC91119791
:102FA000C617D70718F1C530D10570F0CE010497C8
:102FB0008617970748F0C61BD70B2297C193D1936A
:102FC0006D937C93CF0130DFC801DF91CF911F91CA
:102FD0000F91FF90EF90DF90CF90BF90AF909F90B8
:102FE0008F907F906F905F904F9008955B01AC1A27
:102FF000BD0A4C018C0E9D1EA091C108B091C20863
:10300000512C412CF12CE12C109701F58091BF0837
:103010009091C0088815990509F056C046165706C4
:1030200008F052C08DB79EB74091410150914201C6
:10303000841B950BE817F90708F052C0F093C008FD
:10304000E093BF08F90171836083BECF8D919C919D
:10305000119712966C90129713967C901397A8155F
:10306000B90559F56C0142E0C40ED11CCA14DB0449
:1030700020F1AC014A195B09DA011296159780F02C
:103080006282738251834083D9016D937C93E114F2
:10309000F10471F0D7011396FC93EE93129794CF3D
:1030A00022968C0F9D1FF90191838083F301EFCF4E
:1030B000F093C208E093C10887CF4816590608F478
:1030C0002C017D01D301A0CFCB010EDE7C01009746
:1030D00039F0AE01B8010DD0C801A6DE870174CF6A
:1030E00010E000E071CFEE0FFF1F0590F491E02D8E
:1030F0000994FB01DC0102C001900D924150504047
:10310000D8F70895FB01DC0101900D920020E1F752
:103110000895AEE0B0E0EEE8F8E198C20D891E89AE
:1031200086E08C831A8309838FEF9FE79E838D83CC
:10313000AE01475E5F4F6F89788DCE01019609D051
:103140002F813885020F131FF80110822E96E4E0BC
:1031500099C2ABE0B0E0EEEAF8E16AC27C013B0163
:103160008A01FC0117821682838181FFBAC1CE01D8
:1031700001965C01F7019381F30193FD859193FF23
:1031800081913F01882309F449C1853239F493FDC7
:10319000859193FF81913F01853221F4B70190E041
:1031A000B9D1E8CF912C212C312CFFE1F31538F067
:1031B0008B3211F190F4803209F1833229F137FC1E
:1031C0003CC020ED280F2A3050F536FE20C08AE0A2
:1031D000989E200D1124922E06C08D3291F08033DE
:1031E00071F7689430F8F30193FD859193FF819115
:1031F0003F018111DACF21C0689431F8689432F828
:10320000F2CF689433F8EFCF689434F8ECCFEAE06B
:103210002E9E200D1124222E689435F8E4CF8E3294
:1032200029F436FCFBC0689436F8DDCF8C3619F4EF
:10323000689437F8D8CF8836B1F2982F9F7D95548F
:103240009330D8F0833691F18337B1F1833509F0AB
:103250005EC02801F2E04F0E511CF801C080D18001
:10326000692D70E036FC02C06FEF7FEFC6013CD1E4
:103270004C01689437F882010AC00C5F1F4FFFE3CE
:10328000F98388248394912C6501E89437F833FE00
:103290002AC0522C8114910459F5552009F46ACFA3
:1032A000B70180E290E036D15A94F7CFF8018081DF
:1032B00089830E5F1F4FE5CF2801F2E04F0E511CAE
:1032C000F801C080D180692D70E036FC02C06FEF3C
:1032D0007FEFC60114D14C018201D7CFB70180E244
:1032E00090E018D12A942814190409F0B8F7D1CF26
:1032F000F60137FC859137FE81916F01B70190E0AF
:1033000009D151105A94F1E08F1A9108C3CF843635
:1033100019F0893609F073C0F80137FE67C0608183
:103320007181828193810C5F1F4FF32DFF763F2EB9
:1033300097FF09C090958095709561957F4F8F4F4D
:103340009F4F689437F82AE030E0A50113D1C82ECA
:10335000CA188C2C432C36FE0CC0E89440F8C914D3
:1033600040F434FE05C032FC03C0F32DFE7E4F2E28
:10337000892C44FE90C0FE01EC0DF11D808180334C
:1033800009F082C0242D297E422E842D8870582E6B
:1033900043FC8FC040FE89C09C2C821418F42C0C76
:1033A000922C981844FE8BC0B70180E390E0B2D015
:1033B00042FE08C088E790E041FE02C088E590E048
:1033C000B701A8D0C91408F486C0CA94D12C9FEFC5
:1033D000C91AD90ACA0CDB1CF60182916F01B70128
:1033E00090E098D0AC14BD04B9F757CF60817181DB
:1033F000072E000C880B990B0E5F1F4F96CFD32C16
:10340000E894D4F82AE030E0853731F1232D297F84
:10341000D22E8F36F9F040F48835A1F0F70186817D
:1034200097812B96E2E120C1803749F08837B1F7C8
:10343000D4FE02C06894D2F820E130E00DC0689458
:10344000D4F8F6CF34FE03C0822F8660D82E20E158
:1034500032E002C028E030E0F801D7FE0EC0608103
:103460007181828193810C5F1F4FA50183D0C82E8B
:10347000CA183D2CE89437F86CCF6081718190E0D8
:1034800080E00E5F1F4FF1CF42FC02C083947DCFDE
:10349000839483947ACF842D867809F476CFF6CFFF
:1034A000B70180E290E036D083948214C8F3512CA7
:1034B00079CF522C5818821408F474CFF8CF842D89
:1034C000867809F47FCF8BE241FE80E247FC8DE2F3
:1034D000B70190E076CFB70180E390E01BD09A94DB
:1034E00071CF8FEF9FEF9DCFFC0105906150704031
:1034F0000110D8F7809590958E0F9F1F0895FC01BD
:103500006150704001900110D8F7809590958E0F12
:103510009F1F08950F931F93CF93DF93182F092FA9
:10352000EB018B8181FD09C01FEF0FEF812F902FE1
:10353000DF91CF911F910F91089582FF14C02E81CA
:103540003F818C819D81281739073CF4E881F981FE
:10355000CF0101969983888310838E819F81019684
:103560009F838E83E3CFE885F985812F0995892B89
:10357000A1F3DACFFA01AA27283051F1203181F1E5
:10358000E8946F936E7F6E5F7F4F8F4F9F4FAF4F6B
:10359000B1E03ED0B4E03CD0670F781F891F9A1F7E
:1035A000A11D680F791F8A1F911DA11D6A0F711D32
:1035B000811D911DA11D20D009F468943F912AE03E
:1035C000269F11243019305D3193DEF6CF01089526
:1035D000462F4770405D4193B3E00FD0C9F7F6CF57
:1035E000462F4F70405D4A3318F0495D31FD40521F
:1035F000419302D0A9F7EACFB4E0A69597958795B5
:1036000077956795BA95C9F7009761057105089593
:103610009B01AC010A2E069457954795379527953F
:10362000BA95C9F7620F731F841F951FA01D0895D7
:103630002F923F924F925F926F927F928F929F92C2
:10364000AF92BF92CF92DF92EF92FF920F931F93B0
:10365000CF93DF93CDB7DEB7CA1BDB0B0FB6F89461
:10366000DEBF0FBECDBF09942A88398848885F84A1
:103670006E847D848C849B84AA84B984C884DF8012
:10368000EE80FD800C811B81AA81B981CE0FD11DF6
:103690000FB6F894DEBF0FBECDBFED01089511E067
:1036A000CBEDD1E003C0FE011EDD2196CC3DD1075C
:0636B000D1F7F894FFCFF2
:1036B60053055C056B058A05A905C805E7050606D9
:1036C6002506440663068206A106C006DF06FE0638
:1036D60001212224251B1C1E1F26231D28202719F5
:1036E6001A18010A0000E10000000008FF0000E0CF
:1036F6000880005465656E73792072656164792E61
:103706002053656E642027682720746F20676574D0
:103716002061206C697374206F6620636F6D6D6124
:103726006E64732E00253032693D25692000302DE8
:103736003E3100312D3E30002532693A2025730A8C
:103746000041353032006135306400456E61626C8F
:10375600656420666F726365206665656462616391
:103766006B206D6F64652076696120686F746B6588
:1037760079730044697361626C656420666F726375
:103786006520666565646261636B206D6F646520A4
:1037960076696120686F746B65797300456E616246
:1037A6006C6564206D6F7573652B6B6579626F61EF
:1037B6007264206D6F64652076696120686F746B32
:1037C6006579730044697361626C6564206D6F7519
:1037D60073652B6B6579626F617264206D6F6465CA
:1037E6002076696120686F746B6579730061353086
:1037F600330073656E743A2025730A00726563653B
:10380600697665643A2025690A00416374697661C0
:103816007465643A2025730A0044656163746976A9
:10382600617465643A2025730A004F4E004F464680
:1038360000272B2720746F20696E6372656173659C
:1038460020706F6C6C696E672074696D65202873D3
:103856006C6F7765722900272D2720746F206465A9
:1038660063726561736520706F6C6C696E67207436
:10387600696D6520286661737465722900273F2784
:1038860020746F20746F67676C6520646562756766
:10389600206D6F646500272A2720746F20746F6778
:1038A600676C6520666565646261636B2074657329
:1038B60074206D6F6465205B596F752063616E209F
:1038C600616C736F207072657373205365742B4639
:1038D6006F72636520746F20656E61626C65206F20
:1038E60072205365742B4F20746F20646973616274
:1038F6006C655D00277A2720746F20746F67676C8C
:1039060065206A6F696E65642061786973206D6FE2
:10391600646500276B2720746F20746F67676C657A
:10392600206D6F73652B6B6579626F617264206DB4
:103936006F6465205B596F752063616E20616C73DF
:103946006F207072657373205365742B52696768B4
:10395600745472696767657220746F20656E616260
:103966006C65206F72205365742B4C6566745472B7
:10397600696767657220746F2064697361626C653C
:103986005D00276D2720746F20746F67676C652054
:103996006D61696E20706F6C6C696E6700277327A6
:1039A60020746F20746F67676C65207365636F6E34
:1039B6006461727920706F6C6C696E6700616E79F4
:1039C600206865782D737472696E6720616E642055
:1039D6007468656E20656E74657220746F207365F9
:1039E6006E642074686174206D6573736167652009
:1039F60076696120756172740028616E79206F7432
:103A06006865722069732069676E6F726564290044
:103A16003E204465627567206D6F64653A202573A4
:103A26000A003E20466565646261636B20746573B7
:103A360074206D6F64653A2025730A003E204A6F34
:103A4600696E656420617865733A2025730A003EC5
:103A5600204D61696E20706F6C6C696E6720636FB4
:103A66006D6D616E643A2025730A003E20536563CE
:103A76006F6E6461727920706F6C6C696E6720631B
:103A86006F6D6D616E643A2025730A003E204D6F9E
:103A96007573652B4B6579626F617264206D6F6417
:103AA600653A2025730A003E2044656C61792074CE
:103AB600696D653A2025690A0044656C6179207351
:103AC600657420746F2025690A004155544F3A20C9
:103AD6004D61696E20706F6C6C696E6720636F6DE7
:103AE6006D616E643A2025730A004D6F7573652B00
:103AF6006B6579626F617264206D6F64653A20252B
:103B0600730A00413530392530325800413530418D
:103B16003030253032583031303000413530383889
:103B260037253032584631464646463030374537D7
:103B36004537453745303930300041353038383033
:103B4600253032583034363436343041363530301C
:103B56003745303836353030004135303838352540
:103B660030325835344634463430433635434530A2
:103B76003030303030303000413530383830253054
:103B86003258464346464646304137453030303057
:103B96003030303030300041353038383025303232
:103BA6005846344646464630413745303030303048
:103BB60030303030300041353038383825303258E2
:103BC600463146464646303037463746374537450E
:103BD60030303030004135303838322530325846B2
:103BE6003446464646303537453030374530303036
:103BF600303030004135303838342530325835349D
:103C0600324332433035363530303030354130305E
:103C1600393600413530383832253032583534326D
:103C26004332433131374530303745303030303527
:103C36004500413530383832253032583534393040
:103C46003930304137453030303639363030393614
:103C560000413530383838253032584631464646E8
:103C6600463030363536353745374530303030001A
:103C760041353038383425303258463445384538A1
:103C8600303237453030303030303030303000412F
:103C9600353038384125303258463146464646306A
:103CA60030374531393745374530303030004135CA
:103CB6003038383825303258463146464646303058
:103CC600374637463442344230393030000001023C
:103CD6000300000000D60FD510960FD10F860FB93E
:103CE6000FA60F000000004712DD12830F96125D2B
:103CF60012AE12811200000000B014D510830FD44A
:023D06001000AB
:00000001FF
